{
  "contractName": "LiRenContract",
  "abi": [
    {
      "inputs": [],
      "stateMutability": "nonpayable",
      "type": "constructor"
    },
    {
      "anonymous": false,
      "inputs": [
        {
          "indexed": true,
          "internalType": "address",
          "name": "account",
          "type": "address"
        },
        {
          "indexed": true,
          "internalType": "address",
          "name": "operator",
          "type": "address"
        },
        {
          "indexed": false,
          "internalType": "bool",
          "name": "approved",
          "type": "bool"
        }
      ],
      "name": "ApprovalForAll",
      "type": "event"
    },
    {
      "anonymous": false,
      "inputs": [
        {
          "indexed": true,
          "internalType": "address",
          "name": "previousOwner",
          "type": "address"
        },
        {
          "indexed": true,
          "internalType": "address",
          "name": "newOwner",
          "type": "address"
        }
      ],
      "name": "OwnershipTransferred",
      "type": "event"
    },
    {
      "anonymous": false,
      "inputs": [
        {
          "indexed": true,
          "internalType": "address",
          "name": "operator",
          "type": "address"
        },
        {
          "indexed": true,
          "internalType": "address",
          "name": "from",
          "type": "address"
        },
        {
          "indexed": true,
          "internalType": "address",
          "name": "to",
          "type": "address"
        },
        {
          "indexed": false,
          "internalType": "uint256[]",
          "name": "ids",
          "type": "uint256[]"
        },
        {
          "indexed": false,
          "internalType": "uint256[]",
          "name": "values",
          "type": "uint256[]"
        }
      ],
      "name": "TransferBatch",
      "type": "event"
    },
    {
      "anonymous": false,
      "inputs": [
        {
          "indexed": true,
          "internalType": "address",
          "name": "operator",
          "type": "address"
        },
        {
          "indexed": true,
          "internalType": "address",
          "name": "from",
          "type": "address"
        },
        {
          "indexed": true,
          "internalType": "address",
          "name": "to",
          "type": "address"
        },
        {
          "indexed": false,
          "internalType": "uint256",
          "name": "id",
          "type": "uint256"
        },
        {
          "indexed": false,
          "internalType": "uint256",
          "name": "value",
          "type": "uint256"
        }
      ],
      "name": "TransferSingle",
      "type": "event"
    },
    {
      "anonymous": false,
      "inputs": [
        {
          "indexed": false,
          "internalType": "string",
          "name": "value",
          "type": "string"
        },
        {
          "indexed": true,
          "internalType": "uint256",
          "name": "id",
          "type": "uint256"
        }
      ],
      "name": "URI",
      "type": "event"
    },
    {
      "inputs": [],
      "name": "ARTWORK",
      "outputs": [
        {
          "internalType": "uint256",
          "name": "",
          "type": "uint256"
        }
      ],
      "stateMutability": "view",
      "type": "function",
      "constant": true
    },
    {
      "inputs": [],
      "name": "PHOTO",
      "outputs": [
        {
          "internalType": "uint256",
          "name": "",
          "type": "uint256"
        }
      ],
      "stateMutability": "view",
      "type": "function",
      "constant": true
    },
    {
      "inputs": [
        {
          "internalType": "address",
          "name": "account",
          "type": "address"
        },
        {
          "internalType": "uint256",
          "name": "id",
          "type": "uint256"
        }
      ],
      "name": "balanceOf",
      "outputs": [
        {
          "internalType": "uint256",
          "name": "",
          "type": "uint256"
        }
      ],
      "stateMutability": "view",
      "type": "function",
      "constant": true
    },
    {
      "inputs": [
        {
          "internalType": "address[]",
          "name": "accounts",
          "type": "address[]"
        },
        {
          "internalType": "uint256[]",
          "name": "ids",
          "type": "uint256[]"
        }
      ],
      "name": "balanceOfBatch",
      "outputs": [
        {
          "internalType": "uint256[]",
          "name": "",
          "type": "uint256[]"
        }
      ],
      "stateMutability": "view",
      "type": "function",
      "constant": true
    },
    {
      "inputs": [
        {
          "internalType": "address",
          "name": "account",
          "type": "address"
        },
        {
          "internalType": "address",
          "name": "operator",
          "type": "address"
        }
      ],
      "name": "isApprovedForAll",
      "outputs": [
        {
          "internalType": "bool",
          "name": "",
          "type": "bool"
        }
      ],
      "stateMutability": "view",
      "type": "function",
      "constant": true
    },
    {
      "inputs": [],
      "name": "owner",
      "outputs": [
        {
          "internalType": "address",
          "name": "",
          "type": "address"
        }
      ],
      "stateMutability": "view",
      "type": "function",
      "constant": true
    },
    {
      "inputs": [],
      "name": "renounceOwnership",
      "outputs": [],
      "stateMutability": "nonpayable",
      "type": "function"
    },
    {
      "inputs": [
        {
          "internalType": "address",
          "name": "from",
          "type": "address"
        },
        {
          "internalType": "address",
          "name": "to",
          "type": "address"
        },
        {
          "internalType": "uint256[]",
          "name": "ids",
          "type": "uint256[]"
        },
        {
          "internalType": "uint256[]",
          "name": "amounts",
          "type": "uint256[]"
        },
        {
          "internalType": "bytes",
          "name": "data",
          "type": "bytes"
        }
      ],
      "name": "safeBatchTransferFrom",
      "outputs": [],
      "stateMutability": "nonpayable",
      "type": "function"
    },
    {
      "inputs": [
        {
          "internalType": "address",
          "name": "from",
          "type": "address"
        },
        {
          "internalType": "address",
          "name": "to",
          "type": "address"
        },
        {
          "internalType": "uint256",
          "name": "id",
          "type": "uint256"
        },
        {
          "internalType": "uint256",
          "name": "amount",
          "type": "uint256"
        },
        {
          "internalType": "bytes",
          "name": "data",
          "type": "bytes"
        }
      ],
      "name": "safeTransferFrom",
      "outputs": [],
      "stateMutability": "nonpayable",
      "type": "function"
    },
    {
      "inputs": [
        {
          "internalType": "address",
          "name": "operator",
          "type": "address"
        },
        {
          "internalType": "bool",
          "name": "approved",
          "type": "bool"
        }
      ],
      "name": "setApprovalForAll",
      "outputs": [],
      "stateMutability": "nonpayable",
      "type": "function"
    },
    {
      "inputs": [
        {
          "internalType": "bytes4",
          "name": "interfaceId",
          "type": "bytes4"
        }
      ],
      "name": "supportsInterface",
      "outputs": [
        {
          "internalType": "bool",
          "name": "",
          "type": "bool"
        }
      ],
      "stateMutability": "view",
      "type": "function",
      "constant": true
    },
    {
      "inputs": [
        {
          "internalType": "address",
          "name": "newOwner",
          "type": "address"
        }
      ],
      "name": "transferOwnership",
      "outputs": [],
      "stateMutability": "nonpayable",
      "type": "function"
    },
    {
      "inputs": [
        {
          "internalType": "address",
          "name": "account",
          "type": "address"
        },
        {
          "internalType": "uint256",
          "name": "id",
          "type": "uint256"
        },
        {
          "internalType": "uint256",
          "name": "amount",
          "type": "uint256"
        }
      ],
      "name": "mint",
      "outputs": [],
      "stateMutability": "nonpayable",
      "type": "function"
    },
    {
      "inputs": [
        {
          "internalType": "address",
          "name": "account",
          "type": "address"
        },
        {
          "internalType": "uint256",
          "name": "id",
          "type": "uint256"
        },
        {
          "internalType": "uint256",
          "name": "amount",
          "type": "uint256"
        }
      ],
      "name": "burn",
      "outputs": [],
      "stateMutability": "nonpayable",
      "type": "function"
    },
    {
      "inputs": [
        {
          "internalType": "uint256",
          "name": "tokenId",
          "type": "uint256"
        }
      ],
      "name": "uri",
      "outputs": [
        {
          "internalType": "string",
          "name": "",
          "type": "string"
        }
      ],
      "stateMutability": "view",
      "type": "function",
      "constant": true
    },
    {
      "inputs": [
        {
          "internalType": "uint256",
          "name": "tokenId",
          "type": "uint256"
        },
        {
          "internalType": "string",
          "name": "uri",
          "type": "string"
        }
      ],
      "name": "setTokenUri",
      "outputs": [],
      "stateMutability": "nonpayable",
      "type": "function"
    }
  ],
  "bytecode": "0x60806040523480156200001157600080fd5b50604051806020016040528060008152506200003381620000a460201b60201c565b506200005462000048620000c060201b60201c565b620000c860201b60201c565b620000793360006001604051806020016040528060008152506200018e60201b60201c565b6200009e3360006002604051806020016040528060008152506200018e60201b60201c565b62000d74565b8060029080519060200190620000bc929190620005f7565b5050565b600033905090565b6000600360009054906101000a900473ffffffffffffffffffffffffffffffffffffffff16905081600360006101000a81548173ffffffffffffffffffffffffffffffffffffffff021916908373ffffffffffffffffffffffffffffffffffffffff1602179055508173ffffffffffffffffffffffffffffffffffffffff168173ffffffffffffffffffffffffffffffffffffffff167f8be0079c531659141344cd1fd0a4f28419497f9722a3daafe3b4186f6b6457e060405160405180910390a35050565b600073ffffffffffffffffffffffffffffffffffffffff168473ffffffffffffffffffffffffffffffffffffffff160362000200576040517f08c379a0000000000000000000000000000000000000000000000000000000008152600401620001f7906200072e565b60405180910390fd5b600062000212620000c060201b60201c565b90506200024b816000876200022d886200035260201b60201c565b6200023e886200035260201b60201c565b87620003d360201b60201c565b8260008086815260200190815260200160002060008773ffffffffffffffffffffffffffffffffffffffff1673ffffffffffffffffffffffffffffffffffffffff1681526020019081526020016000206000828254620002ac919062000789565b925050819055508473ffffffffffffffffffffffffffffffffffffffff16600073ffffffffffffffffffffffffffffffffffffffff168273ffffffffffffffffffffffffffffffffffffffff167fc3d58168c5ae7397731d063d5bbf3d657854427343f4c083240f7aacaa2d0f6287876040516200032c929190620007f7565b60405180910390a46200034b81600087878787620003db60201b60201c565b5050505050565b60606000600167ffffffffffffffff81111562000374576200037362000824565b5b604051908082528060200260200182016040528015620003a35781602001602082028036833780820191505090505b5090508281600081518110620003be57620003bd62000853565b5b60200260200101818152505080915050919050565b505050505050565b620004078473ffffffffffffffffffffffffffffffffffffffff16620005d460201b62000baf1760201c565b15620005cc578373ffffffffffffffffffffffffffffffffffffffff1663f23a6e6187878686866040518663ffffffff1660e01b8152600401620004509594939291906200096b565b6020604051808303816000875af19250505080156200048f57506040513d601f19601f820116820180604052508101906200048c919062000a3b565b60015b62000540576200049e62000a7a565b806308c379a003620005015750620004b562000ad5565b80620004c2575062000503565b806040517f08c379a0000000000000000000000000000000000000000000000000000000008152600401620004f8919062000bbc565b60405180910390fd5b505b6040517f08c379a0000000000000000000000000000000000000000000000000000000008152600401620005379062000c56565b60405180910390fd5b63f23a6e6160e01b7bffffffffffffffffffffffffffffffffffffffffffffffffffffffff1916817bffffffffffffffffffffffffffffffffffffffffffffffffffffffff191614620005ca576040517f08c379a0000000000000000000000000000000000000000000000000000000008152600401620005c19062000cee565b60405180910390fd5b505b505050505050565b6000808273ffffffffffffffffffffffffffffffffffffffff163b119050919050565b828054620006059062000d3f565b90600052602060002090601f01602090048101928262000629576000855562000675565b82601f106200064457805160ff191683800117855562000675565b8280016001018555821562000675579182015b828111156200067457825182559160200191906001019062000657565b5b50905062000684919062000688565b5090565b5b80821115620006a357600081600090555060010162000689565b5090565b600082825260208201905092915050565b7f455243313135353a206d696e7420746f20746865207a65726f2061646472657360008201527f7300000000000000000000000000000000000000000000000000000000000000602082015250565b600062000716602183620006a7565b91506200072382620006b8565b604082019050919050565b60006020820190508181036000830152620007498162000707565b9050919050565b6000819050919050565b7f4e487b7100000000000000000000000000000000000000000000000000000000600052601160045260246000fd5b6000620007968262000750565b9150620007a38362000750565b9250827fffffffffffffffffffffffffffffffffffffffffffffffffffffffffffffffff03821115620007db57620007da6200075a565b5b828201905092915050565b620007f18162000750565b82525050565b60006040820190506200080e6000830185620007e6565b6200081d6020830184620007e6565b9392505050565b7f4e487b7100000000000000000000000000000000000000000000000000000000600052604160045260246000fd5b7f4e487b7100000000000000000000000000000000000000000000000000000000600052603260045260246000fd5b600073ffffffffffffffffffffffffffffffffffffffff82169050919050565b6000620008af8262000882565b9050919050565b620008c181620008a2565b82525050565b600081519050919050565b600082825260208201905092915050565b60005b8381101562000903578082015181840152602081019050620008e6565b8381111562000913576000848401525b50505050565b6000601f19601f8301169050919050565b60006200093782620008c7565b620009438185620008d2565b935062000955818560208601620008e3565b620009608162000919565b840191505092915050565b600060a082019050620009826000830188620008b6565b620009916020830187620008b6565b620009a06040830186620007e6565b620009af6060830185620007e6565b8181036080830152620009c381846200092a565b90509695505050505050565b6000604051905090565b600080fd5b60007fffffffff0000000000000000000000000000000000000000000000000000000082169050919050565b62000a1581620009de565b811462000a2157600080fd5b50565b60008151905062000a358162000a0a565b92915050565b60006020828403121562000a545762000a53620009d9565b5b600062000a648482850162000a24565b91505092915050565b60008160e01c9050919050565b600060033d111562000a9c5760046000803e62000a9960005162000a6d565b90505b90565b62000aaa8262000919565b810181811067ffffffffffffffff8211171562000acc5762000acb62000824565b5b80604052505050565b600060443d1062000b6d5762000aea620009cf565b60043d036004823e80513d602482011167ffffffffffffffff8211171562000b1457505062000b6d565b808201805167ffffffffffffffff81111562000b34575050505062000b6d565b80602083010160043d03850181111562000b5357505050505062000b6d565b62000b648260200185018662000a9f565b82955050505050505b90565b600081519050919050565b600062000b888262000b70565b62000b948185620006a7565b935062000ba6818560208601620008e3565b62000bb18162000919565b840191505092915050565b6000602082019050818103600083015262000bd8818462000b7b565b905092915050565b7f455243313135353a207472616e7366657220746f206e6f6e204552433131353560008201527f526563656976657220696d706c656d656e746572000000000000000000000000602082015250565b600062000c3e603483620006a7565b915062000c4b8262000be0565b604082019050919050565b6000602082019050818103600083015262000c718162000c2f565b9050919050565b7f455243313135353a204552433131353552656365697665722072656a6563746560008201527f6420746f6b656e73000000000000000000000000000000000000000000000000602082015250565b600062000cd6602883620006a7565b915062000ce38262000c78565b604082019050919050565b6000602082019050818103600083015262000d098162000cc7565b9050919050565b7f4e487b7100000000000000000000000000000000000000000000000000000000600052602260045260246000fd5b6000600282049050600182168062000d5857607f821691505b60208210810362000d6e5762000d6d62000d10565b5b50919050565b6133868062000d846000396000f3fe608060405234801561001057600080fd5b50600436106100ff5760003560e01c8063715018a611610097578063e985e9c511610066578063e985e9c514610298578063f242432a146102c8578063f2fde38b146102e4578063f5298aca14610300576100ff565b8063715018a6146102365780638da5cb5b14610240578063a22cb4651461025e578063d016c5541461027a576100ff565b806320f708b9116100d357806320f708b9146101b05780632eb2c2d6146101ce5780634e1273f4146101ea57806357f7789e1461021a576100ff565b8062fdd58e1461010457806301ffc9a7146101345780630e89341c14610164578063156e29f614610194575b600080fd5b61011e60048036038101906101199190611d36565b61031c565b60405161012b9190611d85565b60405180910390f35b61014e60048036038101906101499190611df8565b6103e4565b60405161015b9190611e40565b60405180910390f35b61017e60048036038101906101799190611e5b565b6104c6565b60405161018b9190611f21565b60405180910390f35b6101ae60048036038101906101a99190611f43565b61056b565b005b6101b8610607565b6040516101c59190611d85565b60405180910390f35b6101e860048036038101906101e39190612193565b61060c565b005b61020460048036038101906101ff9190612325565b6106ad565b604051610211919061245b565b60405180910390f35b610234600480360381019061022f919061251e565b6107c6565b005b61023e61086e565b005b6102486108f6565b6040516102559190612589565b60405180910390f35b610278600480360381019061027391906125d0565b610920565b005b610282610936565b60405161028f9190611d85565b60405180910390f35b6102b260048036038101906102ad9190612610565b61093b565b6040516102bf9190611e40565b60405180910390f35b6102e260048036038101906102dd9190612650565b6109cf565b005b6102fe60048036038101906102f991906126e7565b610a70565b005b61031a60048036038101906103159190611f43565b610b67565b005b60008073ffffffffffffffffffffffffffffffffffffffff168373ffffffffffffffffffffffffffffffffffffffff160361038c576040517f08c379a000000000000000000000000000000000000000000000000000000000815260040161038390612786565b60405180910390fd5b60008083815260200190815260200160002060008473ffffffffffffffffffffffffffffffffffffffff1673ffffffffffffffffffffffffffffffffffffffff16815260200190815260200160002054905092915050565b60007fd9b67a26000000000000000000000000000000000000000000000000000000007bffffffffffffffffffffffffffffffffffffffffffffffffffffffff1916827bffffffffffffffffffffffffffffffffffffffffffffffffffffffff191614806104af57507f0e89341c000000000000000000000000000000000000000000000000000000007bffffffffffffffffffffffffffffffffffffffffffffffffffffffff1916827bffffffffffffffffffffffffffffffffffffffffffffffffffffffff1916145b806104bf57506104be82610bd2565b5b9050919050565b60606004600083815260200190815260200160002080546104e6906127d5565b80601f0160208091040260200160405190810160405280929190818152602001828054610512906127d5565b801561055f5780601f106105345761010080835404028352916020019161055f565b820191906000526020600020905b81548152906001019060200180831161054257829003601f168201915b50505050509050919050565b610573610c3c565b73ffffffffffffffffffffffffffffffffffffffff166105916108f6565b73ffffffffffffffffffffffffffffffffffffffff16146105e7576040517f08c379a00000000000000000000000000000000000000000000000000000000081526004016105de90612852565b60405180910390fd5b61060283838360405180602001604052806000815250610c44565b505050565b600081565b610614610c3c565b73ffffffffffffffffffffffffffffffffffffffff168573ffffffffffffffffffffffffffffffffffffffff16148061065a575061065985610654610c3c565b61093b565b5b610699576040517f08c379a0000000000000000000000000000000000000000000000000000000008152600401610690906128e4565b60405180910390fd5b6106a68585858585610dd9565b5050505050565b606081518351146106f3576040517f08c379a00000000000000000000000000000000000000000000000000000000081526004016106ea90612976565b60405180910390fd5b6000835167ffffffffffffffff8111156107105761070f611f9b565b5b60405190808252806020026020018201604052801561073e5781602001602082028036833780820191505090505b50905060005b84518110156107bb5761078b85828151811061076357610762612996565b5b602002602001015185838151811061077e5761077d612996565b5b602002602001015161031c565b82828151811061079e5761079d612996565b5b602002602001018181525050806107b4906129f4565b9050610744565b508091505092915050565b6107ce610c3c565b73ffffffffffffffffffffffffffffffffffffffff166107ec6108f6565b73ffffffffffffffffffffffffffffffffffffffff1614610842576040517f08c379a000000000000000000000000000000000000000000000000000000000815260040161083990612852565b60405180910390fd5b80600460008481526020019081526020016000209080519060200190610869929190611beb565b505050565b610876610c3c565b73ffffffffffffffffffffffffffffffffffffffff166108946108f6565b73ffffffffffffffffffffffffffffffffffffffff16146108ea576040517f08c379a00000000000000000000000000000000000000000000000000000000081526004016108e190612852565b60405180910390fd5b6108f460006110ec565b565b6000600360009054906101000a900473ffffffffffffffffffffffffffffffffffffffff16905090565b61093261092b610c3c565b83836111b2565b5050565b600081565b6000600160008473ffffffffffffffffffffffffffffffffffffffff1673ffffffffffffffffffffffffffffffffffffffff16815260200190815260200160002060008373ffffffffffffffffffffffffffffffffffffffff1673ffffffffffffffffffffffffffffffffffffffff16815260200190815260200160002060009054906101000a900460ff16905092915050565b6109d7610c3c565b73ffffffffffffffffffffffffffffffffffffffff168573ffffffffffffffffffffffffffffffffffffffff161480610a1d5750610a1c85610a17610c3c565b61093b565b5b610a5c576040517f08c379a0000000000000000000000000000000000000000000000000000000008152600401610a5390612aae565b60405180910390fd5b610a69858585858561131e565b5050505050565b610a78610c3c565b73ffffffffffffffffffffffffffffffffffffffff16610a966108f6565b73ffffffffffffffffffffffffffffffffffffffff1614610aec576040517f08c379a0000000000000000000000000000000000000000000000000000000008152600401610ae390612852565b60405180910390fd5b600073ffffffffffffffffffffffffffffffffffffffff168173ffffffffffffffffffffffffffffffffffffffff1603610b5b576040517f08c379a0000000000000000000000000000000000000000000000000000000008152600401610b5290612b40565b60405180910390fd5b610b64816110ec565b50565b8273ffffffffffffffffffffffffffffffffffffffff163373ffffffffffffffffffffffffffffffffffffffff1614610b9f57600080fd5b610baa83838361159f565b505050565b6000808273ffffffffffffffffffffffffffffffffffffffff163b119050919050565b60007f01ffc9a7000000000000000000000000000000000000000000000000000000007bffffffffffffffffffffffffffffffffffffffffffffffffffffffff1916827bffffffffffffffffffffffffffffffffffffffffffffffffffffffff1916149050919050565b600033905090565b600073ffffffffffffffffffffffffffffffffffffffff168473ffffffffffffffffffffffffffffffffffffffff1603610cb3576040517f08c379a0000000000000000000000000000000000000000000000000000000008152600401610caa90612bd2565b60405180910390fd5b6000610cbd610c3c565b9050610cde81600087610ccf886117bb565b610cd8886117bb565b87611835565b8260008086815260200190815260200160002060008773ffffffffffffffffffffffffffffffffffffffff1673ffffffffffffffffffffffffffffffffffffffff1681526020019081526020016000206000828254610d3d9190612bf2565b925050819055508473ffffffffffffffffffffffffffffffffffffffff16600073ffffffffffffffffffffffffffffffffffffffff168273ffffffffffffffffffffffffffffffffffffffff167fc3d58168c5ae7397731d063d5bbf3d657854427343f4c083240f7aacaa2d0f628787604051610dbb929190612c48565b60405180910390a4610dd28160008787878761183d565b5050505050565b8151835114610e1d576040517f08c379a0000000000000000000000000000000000000000000000000000000008152600401610e1490612ce3565b60405180910390fd5b600073ffffffffffffffffffffffffffffffffffffffff168473ffffffffffffffffffffffffffffffffffffffff1603610e8c576040517f08c379a0000000000000000000000000000000000000000000000000000000008152600401610e8390612d75565b60405180910390fd5b6000610e96610c3c565b9050610ea6818787878787611835565b60005b8451811015611057576000858281518110610ec757610ec6612996565b5b602002602001015190506000858381518110610ee657610ee5612996565b5b60200260200101519050600080600084815260200190815260200160002060008b73ffffffffffffffffffffffffffffffffffffffff1673ffffffffffffffffffffffffffffffffffffffff16815260200190815260200160002054905081811015610f87576040517f08c379a0000000000000000000000000000000000000000000000000000000008152600401610f7e90612e07565b60405180910390fd5b81810360008085815260200190815260200160002060008c73ffffffffffffffffffffffffffffffffffffffff1673ffffffffffffffffffffffffffffffffffffffff168152602001908152602001600020819055508160008085815260200190815260200160002060008b73ffffffffffffffffffffffffffffffffffffffff1673ffffffffffffffffffffffffffffffffffffffff168152602001908152602001600020600082825461103c9190612bf2565b9250508190555050505080611050906129f4565b9050610ea9565b508473ffffffffffffffffffffffffffffffffffffffff168673ffffffffffffffffffffffffffffffffffffffff168273ffffffffffffffffffffffffffffffffffffffff167f4a39dc06d4c0dbc64b70af90fd698a233a518aa5d07e595d983b8c0526c8f7fb87876040516110ce929190612e27565b60405180910390a46110e4818787878787611a14565b505050505050565b6000600360009054906101000a900473ffffffffffffffffffffffffffffffffffffffff16905081600360006101000a81548173ffffffffffffffffffffffffffffffffffffffff021916908373ffffffffffffffffffffffffffffffffffffffff1602179055508173ffffffffffffffffffffffffffffffffffffffff168173ffffffffffffffffffffffffffffffffffffffff167f8be0079c531659141344cd1fd0a4f28419497f9722a3daafe3b4186f6b6457e060405160405180910390a35050565b8173ffffffffffffffffffffffffffffffffffffffff168373ffffffffffffffffffffffffffffffffffffffff1603611220576040517f08c379a000000000000000000000000000000000000000000000000000000000815260040161121790612ed0565b60405180910390fd5b80600160008573ffffffffffffffffffffffffffffffffffffffff1673ffffffffffffffffffffffffffffffffffffffff16815260200190815260200160002060008473ffffffffffffffffffffffffffffffffffffffff1673ffffffffffffffffffffffffffffffffffffffff16815260200190815260200160002060006101000a81548160ff0219169083151502179055508173ffffffffffffffffffffffffffffffffffffffff168373ffffffffffffffffffffffffffffffffffffffff167f17307eab39ab6107e8899845ad3d59bd9653f200f220920489ca2b5937696c31836040516113119190611e40565b60405180910390a3505050565b600073ffffffffffffffffffffffffffffffffffffffff168473ffffffffffffffffffffffffffffffffffffffff160361138d576040517f08c379a000000000000000000000000000000000000000000000000000000000815260040161138490612d75565b60405180910390fd5b6000611397610c3c565b90506113b78187876113a8886117bb565b6113b1886117bb565b87611835565b600080600086815260200190815260200160002060008873ffffffffffffffffffffffffffffffffffffffff1673ffffffffffffffffffffffffffffffffffffffff1681526020019081526020016000205490508381101561144e576040517f08c379a000000000000000000000000000000000000000000000000000000000815260040161144590612e07565b60405180910390fd5b83810360008087815260200190815260200160002060008973ffffffffffffffffffffffffffffffffffffffff1673ffffffffffffffffffffffffffffffffffffffff168152602001908152602001600020819055508360008087815260200190815260200160002060008873ffffffffffffffffffffffffffffffffffffffff1673ffffffffffffffffffffffffffffffffffffffff16815260200190815260200160002060008282546115039190612bf2565b925050819055508573ffffffffffffffffffffffffffffffffffffffff168773ffffffffffffffffffffffffffffffffffffffff168373ffffffffffffffffffffffffffffffffffffffff167fc3d58168c5ae7397731d063d5bbf3d657854427343f4c083240f7aacaa2d0f628888604051611580929190612c48565b60405180910390a461159682888888888861183d565b50505050505050565b600073ffffffffffffffffffffffffffffffffffffffff168373ffffffffffffffffffffffffffffffffffffffff160361160e576040517f08c379a000000000000000000000000000000000000000000000000000000000815260040161160590612f62565b60405180910390fd5b6000611618610c3c565b90506116488185600061162a876117bb565b611633876117bb565b60405180602001604052806000815250611835565b600080600085815260200190815260200160002060008673ffffffffffffffffffffffffffffffffffffffff1673ffffffffffffffffffffffffffffffffffffffff168152602001908152602001600020549050828110156116df576040517f08c379a00000000000000000000000000000000000000000000000000000000081526004016116d690612ff4565b60405180910390fd5b82810360008086815260200190815260200160002060008773ffffffffffffffffffffffffffffffffffffffff1673ffffffffffffffffffffffffffffffffffffffff16815260200190815260200160002081905550600073ffffffffffffffffffffffffffffffffffffffff168573ffffffffffffffffffffffffffffffffffffffff168373ffffffffffffffffffffffffffffffffffffffff167fc3d58168c5ae7397731d063d5bbf3d657854427343f4c083240f7aacaa2d0f6287876040516117ac929190612c48565b60405180910390a45050505050565b60606000600167ffffffffffffffff8111156117da576117d9611f9b565b5b6040519080825280602002602001820160405280156118085781602001602082028036833780820191505090505b50905082816000815181106118205761181f612996565b5b60200260200101818152505080915050919050565b505050505050565b61185c8473ffffffffffffffffffffffffffffffffffffffff16610baf565b15611a0c578373ffffffffffffffffffffffffffffffffffffffff1663f23a6e6187878686866040518663ffffffff1660e01b81526004016118a2959493929190613069565b6020604051808303816000875af19250505080156118de57506040513d601f19601f820116820180604052508101906118db91906130d8565b60015b611983576118ea613112565b806308c379a00361194657506118fe613134565b806119095750611948565b806040517f08c379a000000000000000000000000000000000000000000000000000000000815260040161193d9190611f21565b60405180910390fd5b505b6040517f08c379a000000000000000000000000000000000000000000000000000000000815260040161197a90613236565b60405180910390fd5b63f23a6e6160e01b7bffffffffffffffffffffffffffffffffffffffffffffffffffffffff1916817bffffffffffffffffffffffffffffffffffffffffffffffffffffffff191614611a0a576040517f08c379a0000000000000000000000000000000000000000000000000000000008152600401611a01906132c8565b60405180910390fd5b505b505050505050565b611a338473ffffffffffffffffffffffffffffffffffffffff16610baf565b15611be3578373ffffffffffffffffffffffffffffffffffffffff1663bc197c8187878686866040518663ffffffff1660e01b8152600401611a799594939291906132e8565b6020604051808303816000875af1925050508015611ab557506040513d601f19601f82011682018060405250810190611ab291906130d8565b60015b611b5a57611ac1613112565b806308c379a003611b1d5750611ad5613134565b80611ae05750611b1f565b806040517f08c379a0000000000000000000000000000000000000000000000000000000008152600401611b149190611f21565b60405180910390fd5b505b6040517f08c379a0000000000000000000000000000000000000000000000000000000008152600401611b5190613236565b60405180910390fd5b63bc197c8160e01b7bffffffffffffffffffffffffffffffffffffffffffffffffffffffff1916817bffffffffffffffffffffffffffffffffffffffffffffffffffffffff191614611be1576040517f08c379a0000000000000000000000000000000000000000000000000000000008152600401611bd8906132c8565b60405180910390fd5b505b505050505050565b828054611bf7906127d5565b90600052602060002090601f016020900481019282611c195760008555611c60565b82601f10611c3257805160ff1916838001178555611c60565b82800160010185558215611c60579182015b82811115611c5f578251825591602001919060010190611c44565b5b509050611c6d9190611c71565b5090565b5b80821115611c8a576000816000905550600101611c72565b5090565b6000604051905090565b600080fd5b600080fd5b600073ffffffffffffffffffffffffffffffffffffffff82169050919050565b6000611ccd82611ca2565b9050919050565b611cdd81611cc2565b8114611ce857600080fd5b50565b600081359050611cfa81611cd4565b92915050565b6000819050919050565b611d1381611d00565b8114611d1e57600080fd5b50565b600081359050611d3081611d0a565b92915050565b60008060408385031215611d4d57611d4c611c98565b5b6000611d5b85828601611ceb565b9250506020611d6c85828601611d21565b9150509250929050565b611d7f81611d00565b82525050565b6000602082019050611d9a6000830184611d76565b92915050565b60007fffffffff0000000000000000000000000000000000000000000000000000000082169050919050565b611dd581611da0565b8114611de057600080fd5b50565b600081359050611df281611dcc565b92915050565b600060208284031215611e0e57611e0d611c98565b5b6000611e1c84828501611de3565b91505092915050565b60008115159050919050565b611e3a81611e25565b82525050565b6000602082019050611e556000830184611e31565b92915050565b600060208284031215611e7157611e70611c98565b5b6000611e7f84828501611d21565b91505092915050565b600081519050919050565b600082825260208201905092915050565b60005b83811015611ec2578082015181840152602081019050611ea7565b83811115611ed1576000848401525b50505050565b6000601f19601f8301169050919050565b6000611ef382611e88565b611efd8185611e93565b9350611f0d818560208601611ea4565b611f1681611ed7565b840191505092915050565b60006020820190508181036000830152611f3b8184611ee8565b905092915050565b600080600060608486031215611f5c57611f5b611c98565b5b6000611f6a86828701611ceb565b9350506020611f7b86828701611d21565b9250506040611f8c86828701611d21565b9150509250925092565b600080fd5b7f4e487b7100000000000000000000000000000000000000000000000000000000600052604160045260246000fd5b611fd382611ed7565b810181811067ffffffffffffffff82111715611ff257611ff1611f9b565b5b80604052505050565b6000612005611c8e565b90506120118282611fca565b919050565b600067ffffffffffffffff82111561203157612030611f9b565b5b602082029050602081019050919050565b600080fd5b600061205a61205584612016565b611ffb565b9050808382526020820190506020840283018581111561207d5761207c612042565b5b835b818110156120a657806120928882611d21565b84526020840193505060208101905061207f565b5050509392505050565b600082601f8301126120c5576120c4611f96565b5b81356120d5848260208601612047565b91505092915050565b600080fd5b600067ffffffffffffffff8211156120fe576120fd611f9b565b5b61210782611ed7565b9050602081019050919050565b82818337600083830152505050565b6000612136612131846120e3565b611ffb565b905082815260208101848484011115612152576121516120de565b5b61215d848285612114565b509392505050565b600082601f83011261217a57612179611f96565b5b813561218a848260208601612123565b91505092915050565b600080600080600060a086880312156121af576121ae611c98565b5b60006121bd88828901611ceb565b95505060206121ce88828901611ceb565b945050604086013567ffffffffffffffff8111156121ef576121ee611c9d565b5b6121fb888289016120b0565b935050606086013567ffffffffffffffff81111561221c5761221b611c9d565b5b612228888289016120b0565b925050608086013567ffffffffffffffff81111561224957612248611c9d565b5b61225588828901612165565b9150509295509295909350565b600067ffffffffffffffff82111561227d5761227c611f9b565b5b602082029050602081019050919050565b60006122a161229c84612262565b611ffb565b905080838252602082019050602084028301858111156122c4576122c3612042565b5b835b818110156122ed57806122d98882611ceb565b8452602084019350506020810190506122c6565b5050509392505050565b600082601f83011261230c5761230b611f96565b5b813561231c84826020860161228e565b91505092915050565b6000806040838503121561233c5761233b611c98565b5b600083013567ffffffffffffffff81111561235a57612359611c9d565b5b612366858286016122f7565b925050602083013567ffffffffffffffff81111561238757612386611c9d565b5b612393858286016120b0565b9150509250929050565b600081519050919050565b600082825260208201905092915050565b6000819050602082019050919050565b6123d281611d00565b82525050565b60006123e483836123c9565b60208301905092915050565b6000602082019050919050565b60006124088261239d565b61241281856123a8565b935061241d836123b9565b8060005b8381101561244e57815161243588826123d8565b9750612440836123f0565b925050600181019050612421565b5085935050505092915050565b6000602082019050818103600083015261247581846123fd565b905092915050565b600067ffffffffffffffff82111561249857612497611f9b565b5b6124a182611ed7565b9050602081019050919050565b60006124c16124bc8461247d565b611ffb565b9050828152602081018484840111156124dd576124dc6120de565b5b6124e8848285612114565b509392505050565b600082601f83011261250557612504611f96565b5b81356125158482602086016124ae565b91505092915050565b6000806040838503121561253557612534611c98565b5b600061254385828601611d21565b925050602083013567ffffffffffffffff81111561256457612563611c9d565b5b612570858286016124f0565b9150509250929050565b61258381611cc2565b82525050565b600060208201905061259e600083018461257a565b92915050565b6125ad81611e25565b81146125b857600080fd5b50565b6000813590506125ca816125a4565b92915050565b600080604083850312156125e7576125e6611c98565b5b60006125f585828601611ceb565b9250506020612606858286016125bb565b9150509250929050565b6000806040838503121561262757612626611c98565b5b600061263585828601611ceb565b925050602061264685828601611ceb565b9150509250929050565b600080600080600060a0868803121561266c5761266b611c98565b5b600061267a88828901611ceb565b955050602061268b88828901611ceb565b945050604061269c88828901611d21565b93505060606126ad88828901611d21565b925050608086013567ffffffffffffffff8111156126ce576126cd611c9d565b5b6126da88828901612165565b9150509295509295909350565b6000602082840312156126fd576126fc611c98565b5b600061270b84828501611ceb565b91505092915050565b7f455243313135353a2062616c616e636520717565727920666f7220746865207a60008201527f65726f2061646472657373000000000000000000000000000000000000000000602082015250565b6000612770602b83611e93565b915061277b82612714565b604082019050919050565b6000602082019050818103600083015261279f81612763565b9050919050565b7f4e487b7100000000000000000000000000000000000000000000000000000000600052602260045260246000fd5b600060028204905060018216806127ed57607f821691505b602082108103612800576127ff6127a6565b5b50919050565b7f4f776e61626c653a2063616c6c6572206973206e6f7420746865206f776e6572600082015250565b600061283c602083611e93565b915061284782612806565b602082019050919050565b6000602082019050818103600083015261286b8161282f565b9050919050565b7f455243313135353a207472616e736665722063616c6c6572206973206e6f742060008201527f6f776e6572206e6f7220617070726f7665640000000000000000000000000000602082015250565b60006128ce603283611e93565b91506128d982612872565b604082019050919050565b600060208201905081810360008301526128fd816128c1565b9050919050565b7f455243313135353a206163636f756e747320616e6420696473206c656e67746860008201527f206d69736d617463680000000000000000000000000000000000000000000000602082015250565b6000612960602983611e93565b915061296b82612904565b604082019050919050565b6000602082019050818103600083015261298f81612953565b9050919050565b7f4e487b7100000000000000000000000000000000000000000000000000000000600052603260045260246000fd5b7f4e487b7100000000000000000000000000000000000000000000000000000000600052601160045260246000fd5b60006129ff82611d00565b91507fffffffffffffffffffffffffffffffffffffffffffffffffffffffffffffffff8203612a3157612a306129c5565b5b600182019050919050565b7f455243313135353a2063616c6c6572206973206e6f74206f776e6572206e6f7260008201527f20617070726f7665640000000000000000000000000000000000000000000000602082015250565b6000612a98602983611e93565b9150612aa382612a3c565b604082019050919050565b60006020820190508181036000830152612ac781612a8b565b9050919050565b7f4f776e61626c653a206e6577206f776e657220697320746865207a65726f206160008201527f6464726573730000000000000000000000000000000000000000000000000000602082015250565b6000612b2a602683611e93565b9150612b3582612ace565b604082019050919050565b60006020820190508181036000830152612b5981612b1d565b9050919050565b7f455243313135353a206d696e7420746f20746865207a65726f2061646472657360008201527f7300000000000000000000000000000000000000000000000000000000000000602082015250565b6000612bbc602183611e93565b9150612bc782612b60565b604082019050919050565b60006020820190508181036000830152612beb81612baf565b9050919050565b6000612bfd82611d00565b9150612c0883611d00565b9250827fffffffffffffffffffffffffffffffffffffffffffffffffffffffffffffffff03821115612c3d57612c3c6129c5565b5b828201905092915050565b6000604082019050612c5d6000830185611d76565b612c6a6020830184611d76565b9392505050565b7f455243313135353a2069647320616e6420616d6f756e7473206c656e6774682060008201527f6d69736d61746368000000000000000000000000000000000000000000000000602082015250565b6000612ccd602883611e93565b9150612cd882612c71565b604082019050919050565b60006020820190508181036000830152612cfc81612cc0565b9050919050565b7f455243313135353a207472616e7366657220746f20746865207a65726f20616460008201527f6472657373000000000000000000000000000000000000000000000000000000602082015250565b6000612d5f602583611e93565b9150612d6a82612d03565b604082019050919050565b60006020820190508181036000830152612d8e81612d52565b9050919050565b7f455243313135353a20696e73756666696369656e742062616c616e636520666f60008201527f72207472616e7366657200000000000000000000000000000000000000000000602082015250565b6000612df1602a83611e93565b9150612dfc82612d95565b604082019050919050565b60006020820190508181036000830152612e2081612de4565b9050919050565b60006040820190508181036000830152612e4181856123fd565b90508181036020830152612e5581846123fd565b90509392505050565b7f455243313135353a2073657474696e6720617070726f76616c2073746174757360008201527f20666f722073656c660000000000000000000000000000000000000000000000602082015250565b6000612eba602983611e93565b9150612ec582612e5e565b604082019050919050565b60006020820190508181036000830152612ee981612ead565b9050919050565b7f455243313135353a206275726e2066726f6d20746865207a65726f206164647260008201527f6573730000000000000000000000000000000000000000000000000000000000602082015250565b6000612f4c602383611e93565b9150612f5782612ef0565b604082019050919050565b60006020820190508181036000830152612f7b81612f3f565b9050919050565b7f455243313135353a206275726e20616d6f756e7420657863656564732062616c60008201527f616e636500000000000000000000000000000000000000000000000000000000602082015250565b6000612fde602483611e93565b9150612fe982612f82565b604082019050919050565b6000602082019050818103600083015261300d81612fd1565b9050919050565b600081519050919050565b600082825260208201905092915050565b600061303b82613014565b613045818561301f565b9350613055818560208601611ea4565b61305e81611ed7565b840191505092915050565b600060a08201905061307e600083018861257a565b61308b602083018761257a565b6130986040830186611d76565b6130a56060830185611d76565b81810360808301526130b78184613030565b90509695505050505050565b6000815190506130d281611dcc565b92915050565b6000602082840312156130ee576130ed611c98565b5b60006130fc848285016130c3565b91505092915050565b60008160e01c9050919050565b600060033d11156131315760046000803e61312e600051613105565b90505b90565b600060443d106131c157613146611c8e565b60043d036004823e80513d602482011167ffffffffffffffff8211171561316e5750506131c1565b808201805167ffffffffffffffff81111561318c57505050506131c1565b80602083010160043d0385018111156131a95750505050506131c1565b6131b882602001850186611fca565b82955050505050505b90565b7f455243313135353a207472616e7366657220746f206e6f6e204552433131353560008201527f526563656976657220696d706c656d656e746572000000000000000000000000602082015250565b6000613220603483611e93565b915061322b826131c4565b604082019050919050565b6000602082019050818103600083015261324f81613213565b9050919050565b7f455243313135353a204552433131353552656365697665722072656a6563746560008201527f6420746f6b656e73000000000000000000000000000000000000000000000000602082015250565b60006132b2602883611e93565b91506132bd82613256565b604082019050919050565b600060208201905081810360008301526132e1816132a5565b9050919050565b600060a0820190506132fd600083018861257a565b61330a602083018761257a565b818103604083015261331c81866123fd565b9050818103606083015261333081856123fd565b905081810360808301526133448184613030565b9050969550505050505056fea2646970667358221220adf127c8c7c30b27940aecd79264a18ca1bcecd861207df875799ab68bc6fd9764736f6c634300080d0033",
  "immutableReferences": {},
  "source": "pragma solidity ^0.8.0;\r\n\r\nimport \"@openzeppelin/contracts/token/ERC1155/ERC1155.sol\";\r\nimport \"@openzeppelin/contracts/access/Ownable.sol\";\r\n\r\ncontract LiRenContract is ERC1155, Ownable {\r\n    uint256 public constant ARTWORK = 0;\r\n    uint256 public constant PHOTO = 0;\r\n\r\n    mapping(uint256 => string) private _uri;\r\n\r\n    constructor() ERC1155(\"\") {\r\n        _mint(msg.sender, ARTWORK, 1, \"\");\r\n        _mint(msg.sender, PHOTO, 2, \"\");\r\n    }\r\n\r\n    function mint(address account, uint256 id, uint256 amount) public onlyOwner {\r\n        _mint(account, id, amount, \"\");\r\n    }\r\n\r\n    function burn(address account, uint256 id, uint256 amount) public {\r\n        require(msg.sender == account);\r\n        _burn(account, id, amount);\r\n    }\r\n\r\n    function uri(uint256 tokenId) override public view returns (string memory) {\r\n        return(_uri[tokenId]);\r\n    }\r\n\r\n    function setTokenUri(uint256 tokenId, string memory uri) public onlyOwner() {\r\n        _uri[tokenId] = uri;\r\n    }\r\n\r\n}",
  "sourcePath": "D:\\env\\nodejs\\projects\\1155NFT\\contracts\\Liren.sol",
  "compiler": {
    "name": "solc",
    "version": "0.8.13+commit.abaa5c0e.Emscripten.clang"
  },
  "schemaVersion": "3.4.6",
  "updatedAt": "2022-04-04T15:32:12.605Z",
  "networkType": "ethereum",
  "devdoc": {
    "kind": "dev",
    "methods": {
      "balanceOf(address,uint256)": {
        "details": "See {IERC1155-balanceOf}. Requirements: - `account` cannot be the zero address."
      },
      "balanceOfBatch(address[],uint256[])": {
        "details": "See {IERC1155-balanceOfBatch}. Requirements: - `accounts` and `ids` must have the same length."
      },
      "isApprovedForAll(address,address)": {
        "details": "See {IERC1155-isApprovedForAll}."
      },
      "owner()": {
        "details": "Returns the address of the current owner."
      },
      "renounceOwnership()": {
        "details": "Leaves the contract without owner. It will not be possible to call `onlyOwner` functions anymore. Can only be called by the current owner. NOTE: Renouncing ownership will leave the contract without an owner, thereby removing any functionality that is only available to the owner."
      },
      "safeBatchTransferFrom(address,address,uint256[],uint256[],bytes)": {
        "details": "See {IERC1155-safeBatchTransferFrom}."
      },
      "safeTransferFrom(address,address,uint256,uint256,bytes)": {
        "details": "See {IERC1155-safeTransferFrom}."
      },
      "setApprovalForAll(address,bool)": {
        "details": "See {IERC1155-setApprovalForAll}."
      },
      "supportsInterface(bytes4)": {
        "details": "See {IERC165-supportsInterface}."
      },
      "transferOwnership(address)": {
        "details": "Transfers ownership of the contract to a new account (`newOwner`). Can only be called by the current owner."
      }
    },
    "version": 1
  },
  "userdoc": {
    "kind": "user",
    "methods": {},
    "version": 1
  }
}